{
  "contractName": "FortuneChain",
  "abi": [
    {
      "constant": true,
      "inputs": [
        {
          "name": "",
          "type": "uint256"
        }
      ],
      "name": "questionToOwner",
      "outputs": [
        {
          "name": "",
          "type": "address"
        }
      ],
      "payable": false,
      "stateMutability": "view",
      "type": "function"
    },
    {
      "constant": true,
      "inputs": [
        {
          "name": "",
          "type": "uint256"
        }
      ],
      "name": "questions",
      "outputs": [
        {
          "name": "questionerAddress",
          "type": "address"
        },
        {
          "name": "name",
          "type": "bytes32"
        },
        {
          "name": "qType",
          "type": "uint256"
        },
        {
          "name": "dateOfBirth",
          "type": "uint256"
        },
        {
          "name": "bountyPrice",
          "type": "uint256"
        },
        {
          "name": "questionContents",
          "type": "string"
        },
        {
          "name": "gender",
          "type": "uint8"
        }
      ],
      "payable": false,
      "stateMutability": "view",
      "type": "function"
    },
    {
      "constant": true,
      "inputs": [],
      "name": "commissionRate",
      "outputs": [
        {
          "name": "",
          "type": "uint256"
        }
      ],
      "payable": false,
      "stateMutability": "view",
      "type": "function"
    },
    {
      "constant": true,
      "inputs": [],
      "name": "stopped",
      "outputs": [
        {
          "name": "",
          "type": "bool"
        }
      ],
      "payable": false,
      "stateMutability": "view",
      "type": "function"
    },
    {
      "constant": true,
      "inputs": [],
      "name": "owner",
      "outputs": [
        {
          "name": "",
          "type": "address"
        }
      ],
      "payable": false,
      "stateMutability": "view",
      "type": "function"
    },
    {
      "constant": true,
      "inputs": [],
      "name": "feeRate",
      "outputs": [
        {
          "name": "",
          "type": "uint256"
        }
      ],
      "payable": false,
      "stateMutability": "view",
      "type": "function"
    },
    {
      "constant": true,
      "inputs": [],
      "name": "demoCharactor",
      "outputs": [
        {
          "name": "",
          "type": "uint256"
        }
      ],
      "payable": false,
      "stateMutability": "view",
      "type": "function"
    },
    {
      "constant": true,
      "inputs": [
        {
          "name": "",
          "type": "address"
        }
      ],
      "name": "solutionists",
      "outputs": [
        {
          "name": "solutionistAddress",
          "type": "address"
        },
        {
          "name": "level",
          "type": "uint256"
        },
        {
          "name": "averageWGrade",
          "type": "uint256"
        },
        {
          "name": "totEarn",
          "type": "uint256"
        },
        {
          "name": "totGradedEarn",
          "type": "uint256"
        },
        {
          "name": "totSumWGrade",
          "type": "uint256"
        }
      ],
      "payable": false,
      "stateMutability": "view",
      "type": "function"
    },
    {
      "inputs": [],
      "payable": true,
      "stateMutability": "payable",
      "type": "constructor"
    },
    {
      "anonymous": false,
      "inputs": [
        {
          "indexed": false,
          "name": "qId",
          "type": "uint256"
        },
        {
          "indexed": false,
          "name": "questionCount",
          "type": "uint256"
        },
        {
          "indexed": false,
          "name": "qType",
          "type": "uint256"
        },
        {
          "indexed": false,
          "name": "bountyPrice",
          "type": "uint256"
        },
        {
          "indexed": false,
          "name": "questionContents",
          "type": "string"
        },
        {
          "indexed": false,
          "name": "questionState",
          "type": "uint8"
        },
        {
          "indexed": false,
          "name": "questionOwnerAddress",
          "type": "address"
        },
        {
          "indexed": false,
          "name": "solutionistAddress",
          "type": "address"
        },
        {
          "indexed": false,
          "name": "tarotCardNums",
          "type": "uint256[6]"
        }
      ],
      "name": "LogQuestionUpdate",
      "type": "event"
    },
    {
      "anonymous": false,
      "inputs": [
        {
          "indexed": false,
          "name": "qId",
          "type": "uint256"
        },
        {
          "indexed": false,
          "name": "questionOwnerAddress",
          "type": "address"
        },
        {
          "indexed": false,
          "name": "solutionDemo",
          "type": "string"
        }
      ],
      "name": "LogSolutionOffered",
      "type": "event"
    },
    {
      "constant": false,
      "inputs": [
        {
          "name": "_name",
          "type": "bytes32"
        },
        {
          "name": "_qType",
          "type": "uint256"
        },
        {
          "name": "_dateOfBirth",
          "type": "uint256"
        },
        {
          "name": "_questionContents",
          "type": "string"
        },
        {
          "name": "_bountyPrice",
          "type": "uint256"
        },
        {
          "name": "_gender",
          "type": "uint8"
        }
      ],
      "name": "setBountyQuestions",
      "outputs": [],
      "payable": true,
      "stateMutability": "payable",
      "type": "function"
    },
    {
      "constant": true,
      "inputs": [
        {
          "name": "cString",
          "type": "string"
        }
      ],
      "name": "stringToUint",
      "outputs": [
        {
          "name": "cResult",
          "type": "uint256"
        }
      ],
      "payable": false,
      "stateMutability": "pure",
      "type": "function"
    },
    {
      "constant": false,
      "inputs": [
        {
          "name": "_qId",
          "type": "uint256"
        }
      ],
      "name": "regSolutionist",
      "outputs": [],
      "payable": true,
      "stateMutability": "payable",
      "type": "function"
    },
    {
      "constant": false,
      "inputs": [
        {
          "name": "_qId",
          "type": "uint256"
        },
        {
          "name": "_solutionContents",
          "type": "string"
        }
      ],
      "name": "offerSolution",
      "outputs": [
        {
          "name": "",
          "type": "string"
        }
      ],
      "payable": true,
      "stateMutability": "payable",
      "type": "function"
    },
    {
      "constant": false,
      "inputs": [
        {
          "name": "_qId",
          "type": "uint256"
        }
      ],
      "name": "rejectSolution",
      "outputs": [],
      "payable": false,
      "stateMutability": "nonpayable",
      "type": "function"
    },
    {
      "constant": false,
      "inputs": [
        {
          "name": "_qId",
          "type": "uint256"
        }
      ],
      "name": "acceptSolution",
      "outputs": [],
      "payable": true,
      "stateMutability": "payable",
      "type": "function"
    },
    {
      "constant": false,
      "inputs": [
        {
          "name": "_qId",
          "type": "uint256"
        }
      ],
      "name": "dismissQuestion",
      "outputs": [],
      "payable": true,
      "stateMutability": "payable",
      "type": "function"
    },
    {
      "constant": true,
      "inputs": [
        {
          "name": "_qId",
          "type": "uint256"
        }
      ],
      "name": "getFullSolution",
      "outputs": [
        {
          "name": "",
          "type": "string"
        }
      ],
      "payable": false,
      "stateMutability": "view",
      "type": "function"
    },
    {
      "constant": false,
      "inputs": [
        {
          "name": "_qId",
          "type": "uint256"
        },
        {
          "name": "_solutionGrade",
          "type": "uint256"
        }
      ],
      "name": "setSolutionGrade",
      "outputs": [
        {
          "name": "",
          "type": "uint256"
        }
      ],
      "payable": false,
      "stateMutability": "nonpayable",
      "type": "function"
    },
    {
      "constant": true,
      "inputs": [
        {
          "name": "_qId",
          "type": "uint256"
        }
      ],
      "name": "getFullQuestionInfo",
      "outputs": [
        {
          "name": "",
          "type": "uint256"
        },
        {
          "name": "",
          "type": "bytes32"
        },
        {
          "name": "",
          "type": "uint256"
        },
        {
          "name": "",
          "type": "uint256"
        },
        {
          "name": "",
          "type": "uint256"
        },
        {
          "name": "",
          "type": "string"
        },
        {
          "name": "",
          "type": "uint8"
        },
        {
          "name": "",
          "type": "uint256"
        }
      ],
      "payable": false,
      "stateMutability": "view",
      "type": "function"
    },
    {
      "constant": true,
      "inputs": [
        {
          "name": "_qId",
          "type": "uint256"
        }
      ],
      "name": "getSolutionistState",
      "outputs": [
        {
          "name": "",
          "type": "uint256"
        },
        {
          "name": "",
          "type": "uint256"
        },
        {
          "name": "",
          "type": "uint256"
        }
      ],
      "payable": false,
      "stateMutability": "view",
      "type": "function"
    },
    {
      "constant": false,
      "inputs": [
        {
          "name": "_newFeeRate",
          "type": "uint256"
        }
      ],
      "name": "changeFeeRate",
      "outputs": [
        {
          "name": "",
          "type": "uint256"
        }
      ],
      "payable": false,
      "stateMutability": "nonpayable",
      "type": "function"
    },
    {
      "constant": true,
      "inputs": [],
      "name": "getFeeRate",
      "outputs": [
        {
          "name": "",
          "type": "uint256"
        }
      ],
      "payable": false,
      "stateMutability": "view",
      "type": "function"
    },
    {
      "constant": false,
      "inputs": [
        {
          "name": "_newCommissionRate",
          "type": "uint256"
        }
      ],
      "name": "changeCommissionRate",
      "outputs": [
        {
          "name": "",
          "type": "uint256"
        }
      ],
      "payable": false,
      "stateMutability": "nonpayable",
      "type": "function"
    },
    {
      "constant": false,
      "inputs": [
        {
          "name": "_newNumber",
          "type": "uint256"
        }
      ],
      "name": "changeDemoCharactor",
      "outputs": [
        {
          "name": "",
          "type": "uint256"
        }
      ],
      "payable": false,
      "stateMutability": "nonpayable",
      "type": "function"
    },
    {
      "constant": false,
      "inputs": [],
      "name": "kill",
      "outputs": [],
      "payable": false,
      "stateMutability": "nonpayable",
      "type": "function"
    },
    {
      "constant": false,
      "inputs": [
        {
          "name": "_set",
          "type": "bool"
        }
      ],
      "name": "controlCircuitBreaker",
      "outputs": [
        {
          "name": "",
          "type": "bool"
        }
      ],
      "payable": false,
      "stateMutability": "nonpayable",
      "type": "function"
    }
  ],
  "bytecode": "0x608060405260016009556064600a556032600b556000600c60146101000a81548160ff02191690831515021790555033600c60006101000a81548173ffffffffffffffffffffffffffffffffffffffff021916908373ffffffffffffffffffffffffffffffffffffffff160217905550614adc8061007e6000396000f300608060405260043610610149576000357c0100000000000000000000000000000000000000000000000000000000900463ffffffff16806302a65aa11461014e57806311468c6c1461018f5780631bd95155146102745780631ebe0a51146102f15780632f05eb641461035e57806331b1b978146103f3578063415f6f14146104fd57806341c0e1b51461054c5780634548da2c146105635780634c7428bb146105aa5780635ea1d6f8146105ca5780636642642a146105f557806366ffb9471461063657806375f12b2114610715578063806507ce14610744578063809ebb991461076457806384e5eed0146107845780638da5cb5b146107af578063978bbdb914610806578063ab4ab6da14610831578063affca9321461087c578063be12df27146108bd578063cda81874146108e8578063d228ff8014610915578063df4a4411146109bb575b600080fd5b34801561015a57600080fd5b5061017960048036038101908080359060200190929190505050610a61565b6040518082815260200191505060405180910390f35b34801561019b57600080fd5b506101ba60048036038101908080359060200190929190505050610b5f565b604051808981526020018860001916600019168152602001878152602001868152602001858152602001806020018460ff1660ff168152602001838152602001828103825285818151815260200191508051906020019080838360005b83811015610232578082015181840152602081019050610217565b50505050905090810190601f16801561025f5780820380516001836020036101000a031916815260200191505b50995050505050505050505060405180910390f35b34801561028057600080fd5b506102db600480360381019080803590602001908201803590602001908080601f0160208091040260200160405190810160405280939291908181526020018383808284378201915050505050509192919290505050610e26565b6040518082815260200191505060405180910390f35b3480156102fd57600080fd5b5061031c60048036038101908080359060200190929190505050610ef4565b604051808273ffffffffffffffffffffffffffffffffffffffff1673ffffffffffffffffffffffffffffffffffffffff16815260200191505060405180910390f35b6103f160048036038101908080356000191690602001909291908035906020019092919080359060200190929190803590602001908201803590602001908080601f016020809104026020016040519081016040528093929190818152602001838380828437820191505050505050919291929080359060200190929190803560ff169060200190929190505050610f27565b005b3480156103ff57600080fd5b5061041e600480360381019080803590602001909291905050506116fd565b604051808873ffffffffffffffffffffffffffffffffffffffff1673ffffffffffffffffffffffffffffffffffffffff1681526020018760001916600019168152602001868152602001858152602001848152602001806020018360ff1660ff168152602001828103825284818151815260200191508051906020019080838360005b838110156104bc5780820151818401526020810190506104a1565b50505050905090810190601f1680156104e95780820380516001836020036101000a031916815260200191505b509850505050505050505060405180910390f35b34801561050957600080fd5b5061052860048036038101908080359060200190929190505050611813565b60405180848152602001838152602001828152602001935050505060405180910390f35b34801561055857600080fd5b50610561611a42565b005b34801561056f57600080fd5b50610590600480360381019080803515159060200190929190505050611c12565b604051808215151515815260200191505060405180910390f35b6105c860048036038101908080359060200190929190505050611d30565b005b3480156105d657600080fd5b506105df612493565b6040518082815260200191505060405180910390f35b34801561060157600080fd5b5061062060048036038101908080359060200190929190505050612499565b6040518082815260200191505060405180910390f35b61069a60048036038101908080359060200190929190803590602001908201803590602001908080601f0160208091040260200160405190810160405280939291908181526020018383808284378201915050505050509192919290505050612597565b6040518080602001828103825283818151815260200191508051906020019080838360005b838110156106da5780820151818401526020810190506106bf565b50505050905090810190601f1680156107075780820380516001836020036101000a031916815260200191505b509250505060405180910390f35b34801561072157600080fd5b5061072a612c5d565b604051808215151515815260200191505060405180910390f35b61076260048036038101908080359060200190929190505050612c70565b005b6107826004803603810190808035906020019092919050505061331f565b005b34801561079057600080fd5b50610799613a5a565b6040518082815260200191505060405180910390f35b3480156107bb57600080fd5b506107c4613a64565b604051808273ffffffffffffffffffffffffffffffffffffffff1673ffffffffffffffffffffffffffffffffffffffff16815260200191505060405180910390f35b34801561081257600080fd5b5061081b613a8a565b6040518082815260200191505060405180910390f35b34801561083d57600080fd5b506108666004803603810190808035906020019092919080359060200190929190505050613a90565b6040518082815260200191505060405180910390f35b34801561088857600080fd5b506108a760048036038101908080359060200190929190505050613edb565b6040518082815260200191505060405180910390f35b3480156108c957600080fd5b506108d2613fd9565b6040518082815260200191505060405180910390f35b3480156108f457600080fd5b5061091360048036038101908080359060200190929190505050613fdf565b005b34801561092157600080fd5b50610956600480360381019080803573ffffffffffffffffffffffffffffffffffffffff16906020019092919050505061444d565b604051808773ffffffffffffffffffffffffffffffffffffffff1673ffffffffffffffffffffffffffffffffffffffff168152602001868152602001858152602001848152602001838152602001828152602001965050505050505060405180910390f35b3480156109c757600080fd5b506109e6600480360381019080803590602001909291905050506144a9565b6040518080602001828103825283818151815260200191508051906020019080838360005b83811015610a26578082015181840152602081019050610a0b565b50505050905090810190601f168015610a535780820380516001836020036101000a031916815260200191505b509250505060405180910390f35b6000600c60009054906101000a900473ffffffffffffffffffffffffffffffffffffffff1673ffffffffffffffffffffffffffffffffffffffff163373ffffffffffffffffffffffffffffffffffffffff16141515610b4e576040517f08c379a00000000000000000000000000000000000000000000000000000000081526004018080602001828103825260218152602001807f4f6e6c7920636f6e7472616374206f776e65722063616e2063616c6c2074686981526020017f730000000000000000000000000000000000000000000000000000000000000081525060400191505060405180910390fd5b81600a81905550600a549050919050565b60008060008060006060600080610b74614889565b896002600082815260200190815260200160002060000160009054906101000a900473ffffffffffffffffffffffffffffffffffffffff1673ffffffffffffffffffffffffffffffffffffffff163373ffffffffffffffffffffffffffffffffffffffff16141515610c74576040517f08c379a000000000000000000000000000000000000000000000000000000000815260040180806020018281038252603b8152602001807f4f6e6c79207265676973746572656420536f6c7574696f6e69737420666f722081526020017f74686973207175657374696f6e2063616e2063616c6c2074686973000000000081525060400191505060405180910390fd5b60008b815481101515610c8357fe5b906000526020600020906007020160e060405190810160405290816000820160009054906101000a900473ffffffffffffffffffffffffffffffffffffffff1673ffffffffffffffffffffffffffffffffffffffff1673ffffffffffffffffffffffffffffffffffffffff168152602001600182015460001916600019168152602001600282015481526020016003820154815260200160048201548152602001600582018054600181600116156101000203166002900480601f016020809104026020016040519081016040528092919081815260200182805460018160011615610100020316600290048015610dbc5780601f10610d9157610100808354040283529160200191610dbc565b820191906000526020600020905b815481529060010190602001808311610d9f57829003601f168201915b505050505081526020016006820160009054906101000a900460ff1660ff1660ff168152505091508a82602001518360400151846060015185608001518660a001518760c00151600b54829250995099509950995099509950995099505050919395975091939597565b60006060600080849250600091505b8251821015610eec578282815181101515610e4c57fe5b9060200101517f010000000000000000000000000000000000000000000000000000000000000090047f0100000000000000000000000000000000000000000000000000000000000000027f01000000000000000000000000000000000000000000000000000000000000009004905060308110158015610ece575060398111155b15610edf5760308103600a85020193505b8180600101925050610e35565b505050919050565b60036020528060005260406000206000915054906101000a900473ffffffffffffffffffffffffffffffffffffffff1681565b6000610f316148e3565b600c60149054906101000a900460ff16151515610fdc576040517f08c379a000000000000000000000000000000000000000000000000000000000815260040180806020018281038252603e8152602001807f5468697320697320656d657267656e637920736974756174696f6e207468657281526020017f65666f726520746869732066756e6374696f6e2069732073746f70706564000081525060400191505060405180910390fd5b833414151561109f576040517f08c379a000000000000000000000000000000000000000000000000000000000815260040180806020018281038252604b8152602001807f596f75722073756767657374656420626f756e7479207072696365206973206e81526020017f656564656420746f207472616e7366657220666f722073657474696e6720796f81526020017f7572207175657374696f6e00000000000000000000000000000000000000000081525060600191505060405180910390fd5b6001600060e0604051908101604052803373ffffffffffffffffffffffffffffffffffffffff1681526020018b6000191681526020018a81526020018981526020018781526020018881526020018660ff168152509080600181540180825580915050906001820390600052602060002090600702016000909192909190915060008201518160000160006101000a81548173ffffffffffffffffffffffffffffffffffffffff021916908373ffffffffffffffffffffffffffffffffffffffff1602179055506020820151816001019060001916905560408201518160020155606082015181600301556080820151816004015560a08201518160050190805190602001906111b0929190614906565b5060c08201518160060160006101000a81548160ff021916908360ff1602179055505050039150336003600084815260200190815260200160002060006101000a81548173ffffffffffffffffffffffffffffffffffffffff021916908373ffffffffffffffffffffffffffffffffffffffff16021790555061127c6001600460003373ffffffffffffffffffffffffffffffffffffffff1673ffffffffffffffffffffffffffffffffffffffff168152602001908152602001600020546147db90919063ffffffff16565b600460003373ffffffffffffffffffffffffffffffffffffffff1673ffffffffffffffffffffffffffffffffffffffff1681526020019081526020016000208190555060016007600084815260200190815260200160002060006101000a81548160ff021916908360068111156112ef57fe5b021790555061130a60016008546147db90919063ffffffff16565b6008819055506113363460056000858152602001908152602001600020546147db90919063ffffffff16565b6005600084815260200190815260200160002081905550611377604e611369428b600190046147db90919063ffffffff16565b6147fc90919063ffffffff16565b81600060068110151561138657fe5b6020020181815250506113f4604e6113e63373ffffffffffffffffffffffffffffffffffffffff16316113d83373ffffffffffffffffffffffffffffffffffffffff168b6147db90919063ffffffff16565b6147db90919063ffffffff16565b6147fc90919063ffffffff16565b81600160068110151561140357fe5b60200201818152505061145a604e61144c8461143e4173ffffffffffffffffffffffffffffffffffffffff168c6147db90919063ffffffff16565b6147db90919063ffffffff16565b6147fc90919063ffffffff16565b81600260068110151561146957fe5b602002018181525050611498604e61148a43876147db90919063ffffffff16565b6147fc90919063ffffffff16565b8160036006811015156114a757fe5b6020020181815250506114db604e6114c85a446147db90919063ffffffff16565b8560ff16026147fc90919063ffffffff16565b8160046006811015156114ea57fe5b602002018181525050604e6115278361151943406001900461150b8a610e26565b6147db90919063ffffffff16565b6147db90919063ffffffff16565b81151561153057fe5b0681600560068110151561154057fe5b6020020181815250507f42c79b4731957b4692937b5bcd70c6e934aa938ff051bf32f35aaa9228520cf2826008548987896007600089815260200190815260200160002060009054906101000a900460ff16600360008a815260200190815260200160002060009054906101000a900473ffffffffffffffffffffffffffffffffffffffff16600089604051808a8152602001898152602001888152602001878152602001806020018660068111156115f557fe5b60ff1681526020018573ffffffffffffffffffffffffffffffffffffffff1673ffffffffffffffffffffffffffffffffffffffff1681526020018473ffffffffffffffffffffffffffffffffffffffff16815260200183600660200280838360005b83811015611672578082015181840152602081019050611657565b50505050905001828103825287818151815260200191508051906020019080838360005b838110156116b1578082015181840152602081019050611696565b50505050905090810190601f1680156116de5780820380516001836020036101000a031916815260200191505b509a505050505050505050505060405180910390a15050505050505050565b60008181548110151561170c57fe5b90600052602060002090600702016000915090508060000160009054906101000a900473ffffffffffffffffffffffffffffffffffffffff1690806001015490806002015490806003015490806004015490806005018054600181600116156101000203166002900480601f0160208091040260200160405190810160405280929190818152602001828054600181600116156101000203166002900480156117f65780601f106117cb576101008083540402835291602001916117f6565b820191906000526020600020905b8154815290600101906020018083116117d957829003601f168201915b5050505050908060060160009054906101000a900460ff16905087565b6000806000611820614986565b6118286149be565b60026000878152602001908152602001600020606060405190810160405290816000820160009054906101000a900473ffffffffffffffffffffffffffffffffffffffff1673ffffffffffffffffffffffffffffffffffffffff1673ffffffffffffffffffffffffffffffffffffffff168152602001600182018054600181600116156101000203166002900480601f0160208091040260200160405190810160405280929190818152602001828054600181600116156101000203166002900480156119365780601f1061190b57610100808354040283529160200191611936565b820191906000526020600020905b81548152906001019060200180831161191957829003601f168201915b50505050508152602001600282015481525050915060016000836000015173ffffffffffffffffffffffffffffffffffffffff1673ffffffffffffffffffffffffffffffffffffffff16815260200190815260200160002060c060405190810160405290816000820160009054906101000a900473ffffffffffffffffffffffffffffffffffffffff1673ffffffffffffffffffffffffffffffffffffffff1673ffffffffffffffffffffffffffffffffffffffff16815260200160018201548152602001600282015481526020016003820154815260200160048201548152602001600582015481525050905080602001518160400151826060015194509450945050509193909250565b600c60009054906101000a900473ffffffffffffffffffffffffffffffffffffffff1673ffffffffffffffffffffffffffffffffffffffff163373ffffffffffffffffffffffffffffffffffffffff16141515611b2d576040517f08c379a00000000000000000000000000000000000000000000000000000000081526004018080602001828103825260218152602001807f4f6e6c7920636f6e7472616374206f776e65722063616e2063616c6c2074686981526020017f730000000000000000000000000000000000000000000000000000000000000081525060400191505060405180910390fd5b600c60149054906101000a900460ff161515611bd7576040517f08c379a00000000000000000000000000000000000000000000000000000000081526004018080602001828103825260338152602001807f546869732066756e6374696f6e206f6e6c7920617661696c61626c652061742081526020017f656d657267656e637920736974756174696f6e0000000000000000000000000081525060400191505060405180910390fd5b600c60009054906101000a900473ffffffffffffffffffffffffffffffffffffffff1673ffffffffffffffffffffffffffffffffffffffff16ff5b6000600c60009054906101000a900473ffffffffffffffffffffffffffffffffffffffff1673ffffffffffffffffffffffffffffffffffffffff163373ffffffffffffffffffffffffffffffffffffffff16141515611cff576040517f08c379a00000000000000000000000000000000000000000000000000000000081526004018080602001828103825260218152602001807f4f6e6c7920636f6e7472616374206f776e65722063616e2063616c6c2074686981526020017f730000000000000000000000000000000000000000000000000000000000000081525060400191505060405180910390fd5b81600c60146101000a81548160ff021916908315150217905550600c60149054906101000a900460ff169050919050565b6000611d3a6148e3565b826003600082815260200190815260200160002060009054906101000a900473ffffffffffffffffffffffffffffffffffffffff1673ffffffffffffffffffffffffffffffffffffffff163373ffffffffffffffffffffffffffffffffffffffff16141515611e37576040517f08c379a00000000000000000000000000000000000000000000000000000000081526004018080602001828103825260358152602001807f4f6e6c792061736b6564205175657374696f6e657220666f722074686973207181526020017f75657374696f6e2063616e2063616c6c2074686973000000000000000000000081525060400191505060405180910390fd5b600c60149054906101000a900460ff16151515611ee2576040517f08c379a000000000000000000000000000000000000000000000000000000000815260040180806020018281038252603e8152602001807f5468697320697320656d657267656e637920736974756174696f6e207468657281526020017f65666f726520746869732066756e6374696f6e2069732073746f70706564000081525060400191505060405180910390fd5b60026000858152602001908152602001600020925060016006811115611f0457fe5b6007600086815260200190815260200160002060009054906101000a900460ff166006811115611f3057fe5b1480611f72575060026006811115611f4457fe5b6007600086815260200190815260200160002060009054906101000a900460ff166006811115611f7057fe5b145b80611fb3575060056006811115611f8557fe5b6007600086815260200190815260200160002060009054906101000a900460ff166006811115611fb157fe5b145b151561204d576040517f08c379a000000000000000000000000000000000000000000000000000000000815260040180806020018281038252603e8152602001807f4469736d697373207175657374696f6e2063616e206265206f6e6c792073657481526020017f206f722070656e64696e67206f722072656a656374656420737461746520000081525060400191505060405180910390fd5b6001600681111561205a57fe5b6007600086815260200190815260200160002060009054906101000a900460ff16600681111561208657fe5b14806120c857506005600681111561209a57fe5b6007600086815260200190815260200160002060009054906101000a900460ff1660068111156120c657fe5b145b156121075760066007600086815260200190815260200160002060006101000a81548160ff021916908360068111156120fd57fe5b0217905550612276565b6002600681111561211457fe5b6007600086815260200190815260200160002060009054906101000a900460ff16600681111561214057fe5b1415612275576203f480600660008681526020019081526020016000205401421115156121fb576040517f08c379a000000000000000000000000000000000000000000000000000000000815260040180806020018281038252602c8152602001807f6974206973206e6f7420796574203320646179732066726f6d20736f6c75746981526020017f6f6e697374206c6973746564000000000000000000000000000000000000000081525060400191505060405180910390fd5b60066007600086815260200190815260200160002060006101000a81548160ff0219169083600681111561222b57fe5b021790555060008360000160006101000a81548173ffffffffffffffffffffffffffffffffffffffff021916908373ffffffffffffffffffffffffffffffffffffffff1602179055505b5b3373ffffffffffffffffffffffffffffffffffffffff166108fc60008681548110151561229f57fe5b9060005260206000209060070201600401549081150290604051600060405180830381858888f193505050501580156122dc573d6000803e3d6000fd5b507f42c79b4731957b4692937b5bcd70c6e934aa938ff051bf32f35aaa9228520cf284600854600080600760008a815260200190815260200160002060009054906101000a900460ff16600360008b815260200190815260200160002060009054906101000a900473ffffffffffffffffffffffffffffffffffffffff168960000160009054906101000a900473ffffffffffffffffffffffffffffffffffffffff168960405180898152602001888152602001878152602001868152602001806020018660068111156123ac57fe5b60ff1681526020018573ffffffffffffffffffffffffffffffffffffffff1673ffffffffffffffffffffffffffffffffffffffff1681526020018473ffffffffffffffffffffffffffffffffffffffff1673ffffffffffffffffffffffffffffffffffffffff16815260200183600660200280838360005b8381101561243f578082015181840152602081019050612424565b50505050905001828103825260018152602001807f3000000000000000000000000000000000000000000000000000000000000000815250602001995050505050505050505060405180910390a150505050565b600b5481565b6000600c60009054906101000a900473ffffffffffffffffffffffffffffffffffffffff1673ffffffffffffffffffffffffffffffffffffffff163373ffffffffffffffffffffffffffffffffffffffff16141515612586576040517f08c379a00000000000000000000000000000000000000000000000000000000081526004018080602001828103825260218152602001807f4f6e6c7920636f6e7472616374206f776e65722063616e2063616c6c2074686981526020017f730000000000000000000000000000000000000000000000000000000000000081525060400191505060405180910390fd5b81600b81905550600b549050919050565b6060600060606125a56148e3565b6000866002600082815260200190815260200160002060000160009054906101000a900473ffffffffffffffffffffffffffffffffffffffff1673ffffffffffffffffffffffffffffffffffffffff163373ffffffffffffffffffffffffffffffffffffffff161415156126a7576040517f08c379a000000000000000000000000000000000000000000000000000000000815260040180806020018281038252603b8152602001807f4f6e6c79207265676973746572656420536f6c7574696f6e69737420666f722081526020017f74686973207175657374696f6e2063616e2063616c6c2074686973000000000081525060400191505060405180910390fd5b6002600089815260200190815260200160002094506001600a54016040519080825280601f01601f1916602001820160405280156126f45781602001602082028038833980820191505090505b5093506002600681111561270457fe5b600760008a815260200190815260200160002060009054906101000a900460ff16600681111561273057fe5b1415156127cb576040517f08c379a000000000000000000000000000000000000000000000000000000000815260040180806020018281038252602e8152602001807f5175657374696f6e207374617465206973206e6f7420726561647920746f206181526020017f636365707420736f6c7574696f6e00000000000000000000000000000000000081525060400191505060405180910390fd5b600a54875110151515612892576040517f08c379a00000000000000000000000000000000000000000000000000000000081526004018080602001828103825260498152602001807f536f6c7574696f6e20746578742073686f756c64206265206c6172676572207481526020017f68616e206d696e696d756d2074657874206c656e6774682c20706c656173206381526020017f6865636b2070616765000000000000000000000000000000000000000000000081525060600191505060405180910390fd5b6003600760008a815260200190815260200160002060006101000a81548160ff021916908360068111156128c257fe5b0217905550868560010190805190602001906128df929190614a0b565b50600091505b600a54821115156129945786828151811015156128fe57fe5b9060200101517f010000000000000000000000000000000000000000000000000000000000000090047f010000000000000000000000000000000000000000000000000000000000000002848381518110151561295757fe5b9060200101907effffffffffffffffffffffffffffffffffffffffffffffffffffffffffffff1916908160001a90535081806001019250506128e5565b7f0f304793b6607dbc068c4ea62b83d32f3db44cd7a7cdfdc255dbe16b1d54e9b188600360008b815260200190815260200160002060009054906101000a900473ffffffffffffffffffffffffffffffffffffffff1686604051808481526020018373ffffffffffffffffffffffffffffffffffffffff1673ffffffffffffffffffffffffffffffffffffffff16815260200180602001828103825283818151815260200191508051906020019080838360005b83811015612a63578082015181840152602081019050612a48565b50505050905090810190601f168015612a905780820380516001836020036101000a031916815260200191505b5094505050505060405180910390a17f42c79b4731957b4692937b5bcd70c6e934aa938ff051bf32f35aaa9228520cf288600854600080600760008e815260200190815260200160002060009054906101000a900460ff16600360008f815260200190815260200160002060009054906101000a900473ffffffffffffffffffffffffffffffffffffffff168b60000160009054906101000a900473ffffffffffffffffffffffffffffffffffffffff168a6040518089815260200188815260200187815260200186815260200180602001866006811115612b6e57fe5b60ff1681526020018573ffffffffffffffffffffffffffffffffffffffff1673ffffffffffffffffffffffffffffffffffffffff1681526020018473ffffffffffffffffffffffffffffffffffffffff1673ffffffffffffffffffffffffffffffffffffffff16815260200183600660200280838360005b83811015612c01578082015181840152602081019050612be6565b50505050905001828103825260018152602001807f3000000000000000000000000000000000000000000000000000000000000000815250602001995050505050505050505060405180910390a1839550505050505092915050565b600c60149054906101000a900460ff1681565b6000612c7a6148e3565b826003600082815260200190815260200160002060009054906101000a900473ffffffffffffffffffffffffffffffffffffffff1673ffffffffffffffffffffffffffffffffffffffff163373ffffffffffffffffffffffffffffffffffffffff1614151515612d78576040517f08c379a00000000000000000000000000000000000000000000000000000000081526004018080602001828103825260398152602001807f5175657374696f6e65722063616e206e6f74207265676973746572206173206f81526020017f776e207175657374696f6e277320736f6c7574696f6e6973740000000000000081525060400191505060405180910390fd5b600c60149054906101000a900460ff16151515612e23576040517f08c379a000000000000000000000000000000000000000000000000000000000815260040180806020018281038252603e8152602001807f5468697320697320656d657267656e637920736974756174696f6e207468657281526020017f65666f726520746869732066756e6374696f6e2069732073746f70706564000081525060400191505060405180910390fd5b60026000858152602001908152602001600020925060016006811115612e4557fe5b6007600086815260200190815260200160002060009054906101000a900460ff166006811115612e7157fe5b1480612eb3575060056006811115612e8557fe5b6007600086815260200190815260200160002060009054906101000a900460ff166006811115612eb157fe5b145b1515612f4d576040517f08c379a00000000000000000000000000000000000000000000000000000000081526004018080602001828103825260368152602001807f5175657374696f6e207374617465206973206e6f742061636365707461626c6581526020017f20666f722061206e657720736f6c7574696f6e6973740000000000000000000081525060400191505060405180910390fd5b6064600954600086815481101515612f6157fe5b90600052602060002090600702016004015402811515612f7d57fe5b0434141515613040576040517f08c379a000000000000000000000000000000000000000000000000000000000815260040180806020018281038252605a8152602001807f436865636b206665652072617465206f6620626f756e7479207072696365206f81526020017f6620746869732071756574696f6e206973206e656564656420666f722072656781526020017f697374726174696f6e206173206120736f6c7574696f6e69737400000000000081525060600191505060405180910390fd5b600c60009054906101000a900473ffffffffffffffffffffffffffffffffffffffff1673ffffffffffffffffffffffffffffffffffffffff166108fc606460095460008881548110151561309057fe5b906000526020600020906007020160040154028115156130ac57fe5b049081150290604051600060405180830381858888f193505050501580156130d8573d6000803e3d6000fd5b5060026007600086815260200190815260200160002060006101000a81548160ff0219169083600681111561310957fe5b0217905550338360000160006101000a81548173ffffffffffffffffffffffffffffffffffffffff021916908373ffffffffffffffffffffffffffffffffffffffff1602179055504260066000868152602001908152602001600020819055507f42c79b4731957b4692937b5bcd70c6e934aa938ff051bf32f35aaa9228520cf284600854600080600760008a815260200190815260200160002060009054906101000a900460ff16600360008b815260200190815260200160002060009054906101000a900473ffffffffffffffffffffffffffffffffffffffff168960000160009054906101000a900473ffffffffffffffffffffffffffffffffffffffff1689604051808981526020018881526020018781526020018681526020018060200186600681111561323857fe5b60ff1681526020018573ffffffffffffffffffffffffffffffffffffffff1673ffffffffffffffffffffffffffffffffffffffff1681526020018473ffffffffffffffffffffffffffffffffffffffff1673ffffffffffffffffffffffffffffffffffffffff16815260200183600660200280838360005b838110156132cb5780820151818401526020810190506132b0565b50505050905001828103825260018152602001807f3000000000000000000000000000000000000000000000000000000000000000815250602001995050505050505050505060405180910390a150505050565b613327614986565b6000806133326148e3565b846003600082815260200190815260200160002060009054906101000a900473ffffffffffffffffffffffffffffffffffffffff1673ffffffffffffffffffffffffffffffffffffffff163373ffffffffffffffffffffffffffffffffffffffff1614151561342f576040517f08c379a00000000000000000000000000000000000000000000000000000000081526004018080602001828103825260358152602001807f4f6e6c792061736b6564205175657374696f6e657220666f722074686973207181526020017f75657374696f6e2063616e2063616c6c2074686973000000000000000000000081525060400191505060405180910390fd5b600c60149054906101000a900460ff161515156134da576040517f08c379a000000000000000000000000000000000000000000000000000000000815260040180806020018281038252603e8152602001807f5468697320697320656d657267656e637920736974756174696f6e207468657281526020017f65666f726520746869732066756e6374696f6e2069732073746f70706564000081525060400191505060405180910390fd5b60026000878152602001908152602001600020606060405190810160405290816000820160009054906101000a900473ffffffffffffffffffffffffffffffffffffffff1673ffffffffffffffffffffffffffffffffffffffff1673ffffffffffffffffffffffffffffffffffffffff168152602001600182018054600181600116156101000203166002900480601f0160208091040260200160405190810160405280929190818152602001828054600181600116156101000203166002900480156135e85780601f106135bd576101008083540402835291602001916135e8565b820191906000526020600020905b8154815290600101906020018083116135cb57829003601f168201915b50505050508152602001600282015481525050945060016000866000015173ffffffffffffffffffffffffffffffffffffffff1673ffffffffffffffffffffffffffffffffffffffff16815260200190815260200160002093506064600b5460008881548110151561365657fe5b9060005260206000209060070201600401540281151561367257fe5b0492506003600681111561368257fe5b6007600088815260200190815260200160002060009054906101000a900460ff1660068111156136ae57fe5b14151561376f576040517f08c379a000000000000000000000000000000000000000000000000000000000815260040180806020018281038252604c8152602001807f536f6c7574696f6e20616363657074696e672063616e206265206f6e6c79207381526020017f6f6c7574696f6e206f6666657265642073746174652066726f6d2076616c696481526020017f20736f6c7574696f6e697374000000000000000000000000000000000000000081525060600191505060405180910390fd5b60046007600088815260200190815260200160002060006101000a81548160ff0219169083600681111561379f57fe5b0217905550846000015173ffffffffffffffffffffffffffffffffffffffff166108fc846000898154811015156137d257fe5b906000526020600020906007020160040154039081150290604051600060405180830381858888f19350505050158015613810573d6000803e3d6000fd5b50600c60009054906101000a900473ffffffffffffffffffffffffffffffffffffffff1673ffffffffffffffffffffffffffffffffffffffff166108fc849081150290604051600060405180830381858888f19350505050158015613879573d6000803e3d6000fd5b5083600101600081548092919060010191905055508260008781548110151561389e57fe5b9060005260206000209060070201600401540384600301600082825401925050819055507f42c79b4731957b4692937b5bcd70c6e934aa938ff051bf32f35aaa9228520cf286600854600080600760008c815260200190815260200160002060009054906101000a900460ff16600360008d815260200190815260200160002060009054906101000a900473ffffffffffffffffffffffffffffffffffffffff168b6000015189604051808981526020018881526020018781526020018681526020018060200186600681111561397157fe5b60ff1681526020018573ffffffffffffffffffffffffffffffffffffffff1673ffffffffffffffffffffffffffffffffffffffff1681526020018473ffffffffffffffffffffffffffffffffffffffff1673ffffffffffffffffffffffffffffffffffffffff16815260200183600660200280838360005b83811015613a045780820151818401526020810190506139e9565b50505050905001828103825260018152602001807f3000000000000000000000000000000000000000000000000000000000000000815250602001995050505050505050505060405180910390a1505050505050565b6000600954905090565b600c60009054906101000a900473ffffffffffffffffffffffffffffffffffffffff1681565b60095481565b6000613a9a614986565b600080856003600082815260200190815260200160002060009054906101000a900473ffffffffffffffffffffffffffffffffffffffff1673ffffffffffffffffffffffffffffffffffffffff163373ffffffffffffffffffffffffffffffffffffffff16141515613b9a576040517f08c379a00000000000000000000000000000000000000000000000000000000081526004018080602001828103825260358152602001807f4f6e6c792061736b6564205175657374696f6e657220666f722074686973207181526020017f75657374696f6e2063616e2063616c6c2074686973000000000000000000000081525060400191505060405180910390fd5b60026000888152602001908152602001600020606060405190810160405290816000820160009054906101000a900473ffffffffffffffffffffffffffffffffffffffff1673ffffffffffffffffffffffffffffffffffffffff1673ffffffffffffffffffffffffffffffffffffffff168152602001600182018054600181600116156101000203166002900480601f016020809104026020016040519081016040528092919081815260200182805460018160011615610100020316600290048015613ca85780601f10613c7d57610100808354040283529160200191613ca8565b820191906000526020600020905b815481529060010190602001808311613c8b57829003601f168201915b50505050508152602001600282015481525050935060016000856000015173ffffffffffffffffffffffffffffffffffffffff1673ffffffffffffffffffffffffffffffffffffffff168152602001908152602001600020925085915060046006811115613d1257fe5b6007600089815260200190815260200160002060009054906101000a900460ff166006811115613d3e57fe5b141515613dff576040517f08c379a000000000000000000000000000000000000000000000000000000000815260040180806020018281038252604c8152602001807f536f6c7574696f6e202072656164696e672063616e206265206f6e6c7920736f81526020017f6c7574696f6e2041636365707465642073746174652066726f6d2076616c696481526020017f20736f6c7574696f6e697374000000000000000000000000000000000000000081525060600191505060405180910390fd5b6005821115613e0d57600591505b81846040018181525050613e4e600088815481101515613e2957fe5b90600052602060002090600702016004015484600401546147db90919063ffffffff16565b8360040181905550613e9f613e8c600089815481101515613e6b57fe5b9060005260206000209060070201600401548461482190919063ffffffff16565b84600501546147db90919063ffffffff16565b8360050181905550613ec28360040154846005015461485f90919063ffffffff16565b8360020181905550826002015494505050505092915050565b6000600c60009054906101000a900473ffffffffffffffffffffffffffffffffffffffff1673ffffffffffffffffffffffffffffffffffffffff163373ffffffffffffffffffffffffffffffffffffffff16141515613fc8576040517f08c379a00000000000000000000000000000000000000000000000000000000081526004018080602001828103825260218152602001807f4f6e6c7920636f6e7472616374206f776e65722063616e2063616c6c2074686981526020017f730000000000000000000000000000000000000000000000000000000000000081525060400191505060405180910390fd5b816009819055506009549050919050565b600a5481565b6000613fe96148e3565b826003600082815260200190815260200160002060009054906101000a900473ffffffffffffffffffffffffffffffffffffffff1673ffffffffffffffffffffffffffffffffffffffff163373ffffffffffffffffffffffffffffffffffffffff161415156140e6576040517f08c379a00000000000000000000000000000000000000000000000000000000081526004018080602001828103825260358152602001807f4f6e6c792061736b6564205175657374696f6e657220666f722074686973207181526020017f75657374696f6e2063616e2063616c6c2074686973000000000000000000000081525060400191505060405180910390fd5b6002600085815260200190815260200160002092506003600681111561410857fe5b6007600086815260200190815260200160002060009054906101000a900460ff16600681111561413457fe5b1415156141f5576040517f08c379a000000000000000000000000000000000000000000000000000000000815260040180806020018281038252604c8152602001807f536f6c7574696f6e2072656a656374696e672063616e206265206f6e6c79207381526020017f6f6c7574696f6e206f6666657265642073746174652066726f6d2076616c696481526020017f20736f6c7574696f6e697374000000000000000000000000000000000000000081525060600191505060405180910390fd5b60056007600086815260200190815260200160002060006101000a81548160ff0219169083600681111561422557fe5b021790555060008360000160006101000a81548173ffffffffffffffffffffffffffffffffffffffff021916908373ffffffffffffffffffffffffffffffffffffffff1602179055506020604051908101604052806000815250836001019080519060200190614296929190614a0b565b507f42c79b4731957b4692937b5bcd70c6e934aa938ff051bf32f35aaa9228520cf284600854600080600760008a815260200190815260200160002060009054906101000a900460ff16600360008b815260200190815260200160002060009054906101000a900473ffffffffffffffffffffffffffffffffffffffff168960000160009054906101000a900473ffffffffffffffffffffffffffffffffffffffff1689604051808981526020018881526020018781526020018681526020018060200186600681111561436657fe5b60ff1681526020018573ffffffffffffffffffffffffffffffffffffffff1673ffffffffffffffffffffffffffffffffffffffff1681526020018473ffffffffffffffffffffffffffffffffffffffff1673ffffffffffffffffffffffffffffffffffffffff16815260200183600660200280838360005b838110156143f95780820151818401526020810190506143de565b50505050905001828103825260018152602001807f3000000000000000000000000000000000000000000000000000000000000000815250602001995050505050505050505060405180910390a150505050565b60016020528060005260406000206000915090508060000160009054906101000a900473ffffffffffffffffffffffffffffffffffffffff16908060010154908060020154908060030154908060040154908060050154905086565b60606144b3614986565b826003600082815260200190815260200160002060009054906101000a900473ffffffffffffffffffffffffffffffffffffffff1673ffffffffffffffffffffffffffffffffffffffff163373ffffffffffffffffffffffffffffffffffffffff161415156145b0576040517f08c379a00000000000000000000000000000000000000000000000000000000081526004018080602001828103825260358152602001807f4f6e6c792061736b6564205175657374696f6e657220666f722074686973207181526020017f75657374696f6e2063616e2063616c6c2074686973000000000000000000000081525060400191505060405180910390fd5b60026000858152602001908152602001600020606060405190810160405290816000820160009054906101000a900473ffffffffffffffffffffffffffffffffffffffff1673ffffffffffffffffffffffffffffffffffffffff1673ffffffffffffffffffffffffffffffffffffffff168152602001600182018054600181600116156101000203166002900480601f0160208091040260200160405190810160405280929190818152602001828054600181600116156101000203166002900480156146be5780601f10614693576101008083540402835291602001916146be565b820191906000526020600020905b8154815290600101906020018083116146a157829003601f168201915b505050505081526020016002820154815250509150600460068111156146e057fe5b6007600086815260200190815260200160002060009054906101000a900460ff16600681111561470c57fe5b1415156147cd576040517f08c379a00000000000000000000000000000000000000000000000000000000081526004018080602001828103825260558152602001807f536f6c7574696f6e2072656164696e67206973206f6e6c7920617661696c616281526020017f6c6520666f7220736f6c7574696f6e204163636570746564207374617465206681526020017f726f6d2076616c696420736f6c7574696f6e697374000000000000000000000081525060600191505060405180910390fd5b816020015192505050919050565b60008082840190508381101515156147f257600080fd5b8091505092915050565b600080821415151561480d57600080fd5b818381151561481857fe5b06905092915050565b60008060008414156148365760009150614858565b828402905082848281151561484757fe5b0414151561485457600080fd5b8091505b5092915050565b60008060008311151561487157600080fd5b828481151561487c57fe5b0490508091505092915050565b60e060405190810160405280600073ffffffffffffffffffffffffffffffffffffffff1681526020016000801916815260200160008152602001600081526020016000815260200160608152602001600060ff1681525090565b60c060405190810160405280600690602082028038833980820191505090505090565b828054600181600116156101000203166002900490600052602060002090601f016020900481019282601f1061494757805160ff1916838001178555614975565b82800160010185558215614975579182015b82811115614974578251825591602001919060010190614959565b5b5090506149829190614a8b565b5090565b606060405190810160405280600073ffffffffffffffffffffffffffffffffffffffff16815260200160608152602001600081525090565b60c060405190810160405280600073ffffffffffffffffffffffffffffffffffffffff16815260200160008152602001600081526020016000815260200160008152602001600081525090565b828054600181600116156101000203166002900490600052602060002090601f016020900481019282601f10614a4c57805160ff1916838001178555614a7a565b82800160010185558215614a7a579182015b82811115614a79578251825591602001919060010190614a5e565b5b509050614a879190614a8b565b5090565b614aad91905b80821115614aa9576000816000905550600101614a91565b5090565b905600a165627a7a723058203ad9cfc8e1be27f9a57e60b1404425d02fe0eaa832e8f154f734cd05774a1e100029",
  "source": "pragma solidity ^0.4.23;\r\nimport \"./SafeMath.sol\";\r\n\r\n\r\n/**\r\n * @title FortuneChain\r\n * @dev Bounty question and hunting solution system using tarot cards which is selected by calculated at smart contract\r\n */\r\n\r\ncontract FortuneChain {\r\n\r\n    using SafeMath for uint;\r\n\r\n//address questionerAddress\r\n//bytes32 name\r\n//uint qType = 1: Money, 2: Love, 3:Health, 4: Work\r\n//uint dateOfBirth\r\n//uint bountyPrice\r\n//string questionContents\r\n//uint questionState = 1: Question set, 2: Solutionist listed and solution pending, 3: Solution offered, 4: Solution accepted, 5: Solution rejected, 6: Question dismissed\r\n//uint8 gender = 1: man, 2:woman\r\n    struct Question {\r\n        address questionerAddress;\r\n        bytes32 name;\r\n        uint qType;\r\n        uint dateOfBirth;\r\n        uint bountyPrice;\r\n        string questionContents;\r\n        uint8 gender;\r\n    }\r\n\r\n    struct Solution{\r\n        address solutionistAddress;\r\n        string solutionContents;\r\n        uint solutionGrade;\r\n    }\r\n\r\n    struct Solutionist{\r\n        address solutionistAddress;\r\n        uint level;\r\n        uint averageWGrade; //weighted(by ether value) average grade\r\n        uint totEarn;\r\n        uint totGradedEarn; //total earn which is summation of only grade given solution\r\n        uint totSumWGrade;  //total weighted(by ether value) grade \r\n    }\r\n\r\n    Question[] public questions;\r\n    enum QState { Init, Set, Pending, Offered, Accepted, Rejected, Dismissed }\r\n    \r\n    mapping (address => Solutionist) public solutionists; //for solutionist level\r\n    mapping (uint => Solution) solutions;\r\n    mapping (uint => address) public questionToOwner;\r\n    mapping (address => uint) OwnerQuestionCount;\r\n    mapping (uint => uint) balance;\r\n    mapping (uint => uint) startFromReg;\r\n    mapping (uint => QState) questionState;\r\n  \r\n    uint AllQuestionCount;\r\n    \r\n    /* set up values controled by owner */\r\n    uint public feeRate = 1; // first feerate is 1%\r\n    uint public demoCharactor = 100; //the number of character of demo solution\r\n    uint public commissionRate = 50; //first commission rate 50%\r\n    address public owner;\r\n    bool public stopped = false; //for circuit breaking\r\n\r\n    modifier onlyOwner() {\r\n        require(msg.sender == owner, \"Only contract owner can call this\");\r\n        _;\r\n    }\r\n\r\n    modifier onlyQuestioner(uint _qId) {\r\n        require(msg.sender == questionToOwner[_qId], \"Only asked Questioner for this question can call this\");\r\n        _;\r\n    }\r\n\r\n    modifier notQuestioner(uint _qId) {\r\n        require(msg.sender != questionToOwner[_qId], \"Questioner can not register as own question's solutionist\");\r\n        _;\r\n    }\r\n\r\n    modifier onlySolutionist(uint _qId) {\r\n        require(msg.sender == solutions[_qId].solutionistAddress, \"Only registered Solutionist for this question can call this\");\r\n        _;\r\n    }\r\n\r\n    modifier stopInEmergency {\r\n        require(!stopped, \"This is emergency situation therefore this function is stopped\");\r\n        _;\r\n    }\r\n\r\n    modifier onlyInEmergency {\r\n        require(stopped, \"This function only available at emergency situation\");\r\n        _;\r\n    }\r\n\r\n    event LogQuestionUpdate(\r\n        uint qId,\r\n        uint questionCount,\r\n        uint qType,\r\n        uint bountyPrice,\r\n        string questionContents,\r\n        QState questionState,\r\n        address questionOwnerAddress,\r\n        address solutionistAddress,\r\n        uint[6] tarotCardNums\r\n    );\r\n\r\n    event LogSolutionOffered(\r\n        uint qId,\r\n        address questionOwnerAddress,\r\n        string solutionDemo\r\n    );\r\n\r\n    constructor() public payable{\r\n        owner = msg.sender;\r\n    }\r\n\r\n    /* Question state : Set */\r\n    /** @dev for setting a new question by questioner. with input question information, calculates tarot card number \r\n      * this function's input value is written by questioner at Fortune Chain web service\r\n      * @param _name questioner name\r\n      * @param _qType question category; 1: Money, 2: Love, 3:Health, 4: Work\r\n      * @param _dateOfBirth questioner date of birth ex) 19800315\r\n      * @param _questionContents question detailed contents \r\n      * @param _bountyPrice question bounty price \r\n      * @param _gender questioner gender; 1: man, 2: woman\r\n      * circuit breaker - In emergency situation, question updating should be stopped due to bounty price\r\n     */\r\n    function setBountyQuestions(bytes32 _name, uint _qType, uint _dateOfBirth, string _questionContents, uint _bountyPrice, uint8 _gender) public payable stopInEmergency {\r\n        require(msg.value == _bountyPrice, \"Your suggested bounty price is needed to transfer for setting your question\");\r\n        uint qId = questions.push(Question(msg.sender, _name, _qType, _dateOfBirth, _bountyPrice, _questionContents, _gender)) - 1;\r\n        uint[6] memory tarotCardNums;\r\n\r\n        questionToOwner[qId] = msg.sender;\r\n        OwnerQuestionCount[msg.sender] = OwnerQuestionCount[msg.sender].add(1);\r\n        questionState[qId] = QState.Set;\r\n\r\n        AllQuestionCount = AllQuestionCount.add(1);\r\n        \r\n        balance[qId] = balance[qId].add(msg.value); //deposit question bounty\r\n\r\n        //six card from european caltic cross spread of classic tarot\r\n        tarotCardNums[0] = (uint(_name).add(block.timestamp)).mod(78);                               //  present mind status\r\n        tarotCardNums[1] = (_dateOfBirth.add(uint(msg.sender)).add(msg.sender.balance)).mod(78);     //  related past\r\n        tarotCardNums[2] = (_qType.add(uint(block.coinbase)).add(qId)).mod(78);                      //  conscious hope\r\n        tarotCardNums[3] = (_bountyPrice.add(block.number)).mod(78);                                 //  subconscious hope\r\n        tarotCardNums[4] = (_gender * (block.difficulty).add(gasleft())).mod(78);                    //  main advice\r\n        tarotCardNums[5] = (stringToUint(_questionContents).add(uint(blockhash(block.number))).add(qId)) % 78;      //  future and result\r\n\r\n        emit LogQuestionUpdate(qId, AllQuestionCount, _qType, _bountyPrice, _questionContents,  questionState[qId], questionToOwner[qId], 0, tarotCardNums);\r\n    }  \r\n\r\n    /** @dev for tarot card selected number calculation string information convert to integer\r\n      * @param cString string data input\r\n      * @return cResult converted integer from string\r\n     */\r\n    function stringToUint(string cString) public pure returns(uint cResult) {\r\n        bytes memory base = bytes(cString);\r\n        for (uint i = 0; i < base.length; i++){\r\n            uint convert = uint(base[i]);\r\n            if (convert >= 48 && convert <= 57){\r\n                cResult = cResult * 10 + (convert - 48);\r\n            }           \r\n        }\r\n    } \r\n\r\n    /* Question state : Set -> Solution Pending */\r\n    /** @dev Regists as solutionist for qId's question. the question owned questioner account can not regist as a solutionist\r\n      * @param _qId question id input for registering\r\n      * Info : - When question is only set and rejected state then question is ready to get solitionist\r\n      *        - Only one account can be registered at a question as a solutionist. but when questioner reject solutions then other solutionists has a change\r\n      *        - when regsiter is done, solutionits can read full questioner information\r\n      * circuit breaker - In emergency situation, solutioner registration should be stopped due to entry fee\r\n     */ \r\n    function regSolutionist(uint _qId) public payable notQuestioner(_qId) stopInEmergency {\r\n        Solution storage thisSolution = solutions[_qId];\r\n        uint[6] memory tarotCardNums;\r\n        require((questionState[_qId] == QState.Set) || (questionState[_qId] == QState.Rejected), \"Question state is not acceptable for a new solutionist\");\r\n        require(msg.value == questions[_qId].bountyPrice * feeRate/100, \"Check fee rate of bounty price of this quetion is needed for registration as a solutionist\");\r\n\r\n        //This mediation fee should be 1% from bountyPrice set by changeFeeRate function by only owner\r\n        owner.transfer(questions[_qId].bountyPrice * feeRate/100); \r\n        questionState[_qId] = QState.Pending;\r\n        thisSolution.solutionistAddress = msg.sender;\r\n\r\n        //solutionist address is only valid within 3days from registered. after then Questioner can reject \r\n        startFromReg[_qId] = now; \r\n\r\n        emit LogQuestionUpdate(_qId, AllQuestionCount, 0, 0, \"0\",  questionState[_qId], questionToOwner[_qId], thisSolution.solutionistAddress, tarotCardNums);\r\n    }\r\n\r\n    /* Question state : Solution Pending -> Solution offered */\r\n    /** @dev solution offered by registered solutionist of this question\r\n      * @param _qId question id input for solution offering\r\n      * @param _solutionContents solutionist's input full solution\r\n      * @return solutionDemo before accept solution, questioner only can read some part of the offered solution\r\n      * Info : - When question is only pending state then registered solutionist can offer solution\r\n      *        - only registered solutionist can call this function\r\n      *        - offer solution does not need to send ETH, only gas price is needed due to string\r\n      *        - questioner can check solution demo and solutionits level and average grade for refer to accept\r\n     */\r\n    function offerSolution(uint _qId, string _solutionContents) public payable onlySolutionist(_qId) returns(string) {\r\n        Solution storage thisSolution = solutions[_qId];\r\n        bytes memory solutionDemo = new bytes(demoCharactor+1);\r\n        uint[6] memory tarotCardNums;\r\n\r\n        require(questionState[_qId] == QState.Pending, \"Question state is not ready to accept solution\");\r\n        require(bytes(_solutionContents).length >= demoCharactor, \"Solution text should be larger than minimum text length, pleas check page\");\r\n        questionState[_qId] = QState.Offered;\r\n        thisSolution.solutionContents = _solutionContents;\r\n\r\n        for(uint i = 0; i <= demoCharactor; i++){ //20   \r\n            solutionDemo[i] = bytes(_solutionContents)[i];\r\n        }\r\n\r\n        emit LogSolutionOffered(_qId, questionToOwner[_qId], string(solutionDemo));\r\n        emit LogQuestionUpdate(_qId, AllQuestionCount, 0, 0, \"0\",  questionState[_qId], questionToOwner[_qId], thisSolution.solutionistAddress, tarotCardNums);\r\n        return string(solutionDemo);\r\n    }\r\n\r\n    /* Question state : Solution offered -> Solution reject */\r\n    /** @dev solution rejected by the question's own questioner\r\n      * @param _qId question id input for solution rejecting and set question again \r\n      * Info : - when Questioner get bad solution, questioner can reject solution and clear solutionist address \r\n      *        - then question reset and get ready to other solutionists.\r\n     */ \r\n    function rejectSolution(uint _qId) public onlyQuestioner(_qId) { \r\n        Solution storage thisSolution = solutions[_qId];\r\n        uint[6] memory tarotCardNums;\r\n\r\n        require(questionState[_qId] == QState.Offered, \"Solution rejecting can be only solution offered state from valid solutionist\");\r\n        questionState[_qId] = QState.Rejected;\r\n        thisSolution.solutionistAddress = 0x0000000000000000000000000000000000000000; //reset address\r\n        thisSolution.solutionContents = \"\"; //reset solution contents\r\n        \r\n        emit LogQuestionUpdate(_qId, AllQuestionCount, 0, 0, \"0\",  questionState[_qId], questionToOwner[_qId], thisSolution.solutionistAddress, tarotCardNums);\r\n    }\r\n\r\n    /* Question state : Solution offered -> Solution accept */\r\n    /** @dev solution accpeted by the question's own questioner\r\n      * @param _qId question id input for solution accepting \r\n      * Info : - when Questioner get good solution, questioner can accept solution and send bounty price to the solutionist address\r\n      *        - when Solutionist get accepted, then level of solutionist is upgraded\r\n      * circuit breaker - In emergency situation, accept solution should be stopped due to bounty price and commission \r\n     */ \r\n    function acceptSolution(uint _qId) public payable onlyQuestioner(_qId) stopInEmergency { \r\n        Solution memory thisSolution = solutions[_qId];\r\n        Solutionist storage thisSolutionist = solutionists[thisSolution.solutionistAddress];\r\n        uint commissionFee = questions[_qId].bountyPrice * commissionRate / 100;\r\n        uint[6] memory tarotCardNums;\r\n\r\n        require(questionState[_qId] == QState.Offered, \"Solution accepting can be only solution offered state from valid solutionist\");\r\n        questionState[_qId] = QState.Accepted;\r\n        thisSolution.solutionistAddress.transfer(questions[_qId].bountyPrice - commissionFee); \r\n        owner.transfer(commissionFee); \r\n\r\n        thisSolutionist.level++; //solutionist level upgrade --> this needed safemath\r\n        thisSolutionist.totEarn += (questions[_qId].bountyPrice - commissionFee); //total earn by solutionists\r\n\r\n        emit LogQuestionUpdate(_qId, AllQuestionCount, 0, 0,\"0\", questionState[_qId], questionToOwner[_qId], thisSolution.solutionistAddress, tarotCardNums);\r\n    }\r\n\r\n    /* Question state : Set or Pending or Rejected -> Question dismissed */\r\n    /** @dev question dismissed by the question's own questioner\r\n      * @param _qId question id input for question dismissing\r\n      * Info : - when Questioner change mind to cancel about bounty question, \r\n      *        - questioner can be dismiss question only set or pending status within 3days from solutionist regster time\r\n      * circuit breaker - In emergency situation, accept solution should be stopped due to bounty price\r\n     */ \r\n    function dismissQuestion(uint _qId) public payable onlyQuestioner(_qId) stopInEmergency { \r\n        Solution storage thisSolution = solutions[_qId];\r\n        uint[6] memory tarotCardNums;\r\n\r\n        require((questionState[_qId] == QState.Set) || (questionState[_qId] == QState.Pending) || (questionState[_qId] == QState.Rejected), \"Dismiss question can be only set or pending or rejected state \");\r\n        \r\n        if((questionState[_qId] == QState.Set) || (questionState[_qId] == QState.Rejected)) {          \r\n            questionState[_qId] = QState.Dismissed;\r\n            //when reject state it was already reset registered solutionit's address and solution\r\n        } else if(questionState[_qId] == QState.Pending) {\r\n            require(now > startFromReg[_qId] + 3 days, \"it is not yet 3 days from solutionist listed\");\r\n            questionState[_qId] = QState.Dismissed;\r\n            thisSolution.solutionistAddress = 0x0000000000000000000000000000000000000000; //reset address\r\n        } \r\n        \r\n        msg.sender.transfer(questions[_qId].bountyPrice);  //only questioner can be payback for bounty price\r\n \r\n        emit LogQuestionUpdate(_qId, AllQuestionCount, 0, 0, \"0\",  questionState[_qId], questionToOwner[_qId], thisSolution.solutionistAddress, tarotCardNums);\r\n    }\r\n\r\n    /** @dev get full solution only for the question's own questioner \r\n      * @param _qId question id input for get full solution\r\n      * @return solutionContents after accept solution, only questioner can read full solution.\r\n     */ \r\n    function getFullSolution(uint _qId) public view onlyQuestioner(_qId) returns(string) {    \r\n        Solution memory thisSolution = solutions[_qId];\r\n\r\n        require(questionState[_qId] == QState.Accepted, \"Solution reading is only available for solution Accepted state from valid solutionist\");      \r\n        \r\n        return (thisSolution.solutionContents);\r\n    }\r\n   \r\n    /** @dev set solution grade by solution accepted and checked questioner \r\n      * @param _qId question id input for set solution grade\r\n      * @param _solutionGrade question id input for set solution grade 0 to 5\r\n      * @return solutionDemo before accept solution, questioner only can read some part of the offered solution.\r\n      * Info : - Questioner can set solution grade after solution review\r\n      *        - Solutioner Average grade is calculated by weighted of bounty price, higher bounty price affect more at average grade\r\n      *        - therefore it is hard to control the solutionist grade due to entry and commisstion fee\r\n     */         \r\n    function setSolutionGrade(uint _qId, uint _solutionGrade) public onlyQuestioner(_qId) returns(uint) { \r\n        Solution memory thisSolution = solutions[_qId];\r\n        Solutionist storage thisSolutionist = solutionists[thisSolution.solutionistAddress];\r\n        uint givenGrade = _solutionGrade;\r\n        require(questionState[_qId] == QState.Accepted, \"Solution  reading can be only solution Accepted state from valid solutionist\");              \r\n        \r\n        if (givenGrade > 5){\r\n            givenGrade = 5;\r\n        }\r\n\r\n        thisSolution.solutionGrade = givenGrade; //save each solution grade\r\n\r\n        //weighted(by ether value) average grade calculation\r\n        thisSolutionist.totGradedEarn = thisSolutionist.totGradedEarn.add(questions[_qId].bountyPrice);\r\n        thisSolutionist.totSumWGrade = thisSolutionist.totSumWGrade.add(givenGrade.mul(questions[_qId].bountyPrice)); //earned ether weighted only grade given by questioner\r\n        thisSolutionist.averageWGrade = thisSolutionist.totSumWGrade.div(thisSolutionist.totGradedEarn);\r\n\r\n        return (thisSolutionist.averageWGrade);\r\n    }\r\n\r\n\r\n    /* get Info */\r\n    \r\n     /** @dev get full question infotmation by only registered solutionist\r\n      * @param _qId question id input for get full question information \r\n      * @return _qId for check question ID\r\n      * @return _name questioner name\r\n      * @return _qType question category; 1: Money, 2: Love, 3:Health, 4: Work\r\n      * @return _dateOfBirth questioner date of birth ex) 19800315\r\n      * @return _bountyPrice question bounty price \r\n      * @return _questionContents question detailed contents \r\n      * @return _gender questioner gender; 1: man, 2: woman\r\n      * @return commissionRate to check and display commission rate\r\n      * Info : - when regsiter is done, only registered solutionit of the question can read full questioner information for make best solutions\r\n     */     \r\n    function getFullQuestionInfo(uint _qId) public view onlySolutionist(_qId) returns(uint, bytes32, uint, uint, uint, string, uint8, uint) {\r\n        Question memory fQuestionI = questions[_qId];      \r\n        return (_qId, fQuestionI.name, fQuestionI.qType, fQuestionI.dateOfBirth, fQuestionI.bountyPrice, fQuestionI.questionContents, fQuestionI.gender, commissionRate);\r\n    }\r\n\r\n     /** @dev get Solutionist infotmation by checking reliability\r\n      * @param _qId question id input for get Solutionist information\r\n      * @return level solutionist level (How many get accepted)\r\n      * @return averageWGrade Average weighted graded by bounty price\r\n      * @return totEarn total earned bounty (from now on it is not displayed yet) \r\n      * Info : - When solution offered, questioner can check solution demo and solutionits level and average grade for refer to accept\r\n     */     \r\n    function getSolutionistState(uint _qId) public view returns(uint, uint, uint){\r\n        Solution memory thisSolution = solutions[_qId];\r\n        Solutionist memory thisSolutionist = solutionists[thisSolution.solutionistAddress];\r\n        return (thisSolutionist.level, thisSolutionist.averageWGrade, thisSolutionist.totEarn);\r\n    }\r\n    \r\n    /* fee rate */\r\n\r\n     /** @dev changes Entry fee rate\r\n      * @param _newFeeRate input new entry fee rate\r\n      * @return feeRate changed fee rate\r\n      * Info : only controlled by contract owner\r\n     */     \r\n    function changeFeeRate(uint _newFeeRate) public onlyOwner returns(uint) {    \r\n        feeRate = _newFeeRate;      \r\n        return (feeRate);\r\n    }\r\n\r\n     /** @dev get Entry fee rate for display to public\r\n      * @return feeRate latest fee rate\r\n     */     \r\n    function getFeeRate() public view returns(uint) {\r\n        return (feeRate);\r\n    }\r\n\r\n    /** @dev changes Commission Rate\r\n      * @param _newCommissionRate input new Commission fee rate\r\n      * @return commissionRate changed commission Rate\r\n      * Info : only controlled by contract owner\r\n     */     \r\n    function changeCommissionRate(uint _newCommissionRate) public onlyOwner returns(uint) {    \r\n        commissionRate = _newCommissionRate;      \r\n        return (commissionRate);\r\n    }\r\n\r\n    /** @dev changes the number of solution demo charactor \r\n      * @param _newNumber input the number of solution demo charactor\r\n      * @return demoCharactor changed the number of solution demo charactor \r\n      * Info : only controlled by contract owner\r\n     */ \r\n    function changeDemoCharactor(uint _newNumber) public onlyOwner returns(uint) {    \r\n        demoCharactor = _newNumber;      \r\n        return (demoCharactor);\r\n    }\r\n\r\n\r\n    /* circuit break */ \r\n\r\n    /** @dev contract destruct\r\n      * Info : only controlled by contract owner, and only in emergency activated\r\n     */ \r\n    function kill() public onlyOwner onlyInEmergency {\r\n        selfdestruct(owner);\r\n    }\r\n\r\n    /** @dev control Circuit Breaker, to activate Circuit breaker\r\n      * @param _set input boolen to set or reset Circuit breaker\r\n      * @return stopped circuit breaker flag\r\n      * Info : only controlled by contract owner\r\n     */ \r\n    function controlCircuitBreaker(bool _set) public onlyOwner returns(bool) {\r\n        stopped = _set;\r\n        return stopped;\r\n    }\r\n\r\n\r\n}\r\n",
  "sourcePath": "C:\\users\\scw99\\blockchain\\truffle\\fortunechain\\contracts\\FortuneChain.sol",
  "compiler": {
    "name": "solc",
    "version": "0.4.24+commit.e67f0147.Emscripten.clang"
  },
  "schemaVersion": "2.0.1",
  "updatedAt": "2018-08-27T16:00:24.905Z"
}